:100000000C942A000C943F000C943F000C943F0089
:100010000C943F000C943F000C943F000C943F0064
:100020000C943F000C943F000C943F000C943F0054
:100030000C943F000C943F000C943F000C943F0044
:100040000C943F000C943F000C943F000C943F0034
:100050000C943F0011241FBECFE5D4E0DEBFCDBF1E
:1000600010E0A0E6B0E0E8E8F2E002C005900D92F2
:10007000A83AB107D9F70E940F010C9442010C94E1
:10008000000092B39F7E92BB92B39F7D92BB92B3CE
:10009000907F282F22952F70922B92BB92B3906461
:1000A00092BBE9EFF0E03197F1F700C0000092B3A6
:1000B0009F7B92BB92B3907F8F70892B82BB82B360
:1000C000806482BB89EF90E00197F1F700C00000E7
:1000D00082B38F7B82BB08958FEF81BB82B38F7B0E
:1000E00082BB83E30E94410082E30E9441008EE0D4
:1000F0000E94410081E00E94410089EF90E0019759
:10010000F1F700C00000089592B3906192BB92B3E2
:100110009F7D92BB92B3907F282F22952F70922BB8
:1001200092BB92B3906492BBE9EFF0E03197F1F7A4
:1001300000C0000092B39F7B92BB92B3907F8F7000
:10014000892B82BB82B3806482BB89EF90E00197E8
:10015000F1F700C0000082B38F7B82BB08950F933C
:100160001F93CF938C01C0E003C00E948400CF5F37
:10017000F801EC0FF11D80818111F7CFCF911F9114
:100180000F910895CF93DF93CDB7DEB7CA54D1094D
:100190000FB6F894DEBF0FBECDBFBC0184E2E0E62F
:1001A000F0E0DE01119601900D928A95E1F784E26C
:1001B000E4E8F0E0DE01959601900D928A95E1F772
:1001C00090E021C0492F50E0E1E0F0E0EC0FFD1F8E
:1001D000E40FF51F208130E02617370799F4E5E298
:1001E000F0E0EC0FFD1FE40FF51F80812A968FAF22
:1001F0002A972B961FAE2B97CE01875B9F4F0E94AD
:10020000AF0003C09F5F9432E8F2C65BDF4F0FB6CA
:10021000F894DEBF0FBECDBFDF91CF9108951ABA1B
:100220008FEF8BBB87BB0E946C0090E080E022C008
:10023000C8990DC0E3EDF0E33197F1F700C000007D
:10024000C89918C0880F9F5FC89BFECF13C0C9997B
:1002500011C0E3EDF0E33197F1F700C00000C99958
:1002600009C0282F30E0220F331F822F81609F5F4B
:10027000C99BFECF9630E0F290E00E94C20090E071
:0802800080E0F8CFF894FFCFF5
:100288002B1A31072238160B3D28111F04320D276F
:10029800182E3B03340814291C05203E0F1325395A
:1002A800021A332C3031323334353637383941423B
:1002B800434445464748494A4B4C4D4E4F5051528E
:0802C800535455565758595A7A
:00000001FF
